{
  "contractName": "FileOwnership",
  "abi": [
    {
      "anonymous": false,
      "inputs": [
        {
          "indexed": true,
          "internalType": "address",
          "name": "previousOwner",
          "type": "address"
        },
        {
          "indexed": true,
          "internalType": "address",
          "name": "newOwner",
          "type": "address"
        }
      ],
      "name": "OwnershipTransferred",
      "type": "event"
    },
    {
      "anonymous": false,
      "inputs": [
        {
          "indexed": false,
          "internalType": "string",
          "name": "name",
          "type": "string"
        },
        {
          "indexed": false,
          "internalType": "string",
          "name": "fileHash",
          "type": "string"
        },
        {
          "indexed": true,
          "internalType": "address",
          "name": "owner",
          "type": "address"
        },
        {
          "indexed": false,
          "internalType": "uint256",
          "name": "storeDate",
          "type": "uint256"
        }
      ],
      "name": "StoreFileEvent",
      "type": "event"
    },
    {
      "inputs": [
        {
          "internalType": "string",
          "name": "_name",
          "type": "string"
        },
        {
          "internalType": "string",
          "name": "_fileHash",
          "type": "string"
        },
        {
          "internalType": "address",
          "name": "_owner",
          "type": "address"
        }
      ],
      "name": "Store",
      "outputs": [],
      "stateMutability": "nonpayable",
      "type": "function"
    },
    {
      "inputs": [
        {
          "internalType": "string",
          "name": "_fileHash",
          "type": "string"
        }
      ],
      "name": "checkFileExistByHash",
      "outputs": [
        {
          "internalType": "bool",
          "name": "",
          "type": "bool"
        },
        {
          "internalType": "address",
          "name": "",
          "type": "address"
        }
      ],
      "stateMutability": "view",
      "type": "function"
    },
    {
      "inputs": [
        {
          "internalType": "uint256",
          "name": "",
          "type": "uint256"
        }
      ],
      "name": "files",
      "outputs": [
        {
          "internalType": "string",
          "name": "name",
          "type": "string"
        },
        {
          "internalType": "string",
          "name": "fileHash",
          "type": "string"
        },
        {
          "internalType": "address",
          "name": "owner",
          "type": "address"
        },
        {
          "internalType": "uint256",
          "name": "storeDate",
          "type": "uint256"
        }
      ],
      "stateMutability": "view",
      "type": "function"
    },
    {
      "inputs": [
        {
          "internalType": "string",
          "name": "_fileHash",
          "type": "string"
        }
      ],
      "name": "getFileIdByHash",
      "outputs": [
        {
          "internalType": "uint256",
          "name": "",
          "type": "uint256"
        },
        {
          "internalType": "bool",
          "name": "",
          "type": "bool"
        }
      ],
      "stateMutability": "view",
      "type": "function"
    },
    {
      "inputs": [
        {
          "internalType": "address",
          "name": "_owner",
          "type": "address"
        }
      ],
      "name": "getFilesByOwner",
      "outputs": [
        {
          "internalType": "uint256[]",
          "name": "",
          "type": "uint256[]"
        }
      ],
      "stateMutability": "view",
      "type": "function"
    },
    {
      "inputs": [
        {
          "internalType": "address",
          "name": "_owner",
          "type": "address"
        },
        {
          "internalType": "uint256[]",
          "name": "fileIds",
          "type": "uint256[]"
        }
      ],
      "name": "getOwnerFileDetails",
      "outputs": [
        {
          "internalType": "string[]",
          "name": "",
          "type": "string[]"
        },
        {
          "internalType": "string[]",
          "name": "",
          "type": "string[]"
        }
      ],
      "stateMutability": "view",
      "type": "function"
    },
    {
      "inputs": [],
      "name": "isOwner",
      "outputs": [
        {
          "internalType": "bool",
          "name": "",
          "type": "bool"
        }
      ],
      "stateMutability": "view",
      "type": "function"
    },
    {
      "inputs": [],
      "name": "owner",
      "outputs": [
        {
          "internalType": "address",
          "name": "",
          "type": "address"
        }
      ],
      "stateMutability": "view",
      "type": "function"
    },
    {
      "inputs": [],
      "name": "renounceOwnership",
      "outputs": [],
      "stateMutability": "nonpayable",
      "type": "function"
    },
    {
      "inputs": [
        {
          "internalType": "address",
          "name": "newOwner",
          "type": "address"
        }
      ],
      "name": "transferOwnership",
      "outputs": [],
      "stateMutability": "nonpayable",
      "type": "function"
    },
    {
      "inputs": [
        {
          "internalType": "address",
          "name": "_from",
          "type": "address"
        },
        {
          "internalType": "address",
          "name": "_to",
          "type": "address"
        },
        {
          "internalType": "uint256",
          "name": "_tokenId",
          "type": "uint256"
        }
      ],
      "name": "_transfer",
      "outputs": [],
      "stateMutability": "nonpayable",
      "type": "function"
    }
  ],
  "bytecode": "0x608060405234801561001057600080fd5b50336000806101000a81548173ffffffffffffffffffffffffffffffffffffffff021916908373ffffffffffffffffffffffffffffffffffffffff16021790555060008054906101000a900473ffffffffffffffffffffffffffffffffffffffff1673ffffffffffffffffffffffffffffffffffffffff16600073ffffffffffffffffffffffffffffffffffffffff167f8be0079c531659141344cd1fd0a4f28419497f9722a3daafe3b4186f6b6457e060405160405180910390a3611ee6806100db6000396000f3fe608060405234801561001057600080fd5b50600436106100a95760003560e01c80638f32d59b116100715780638f32d59b1461013f578063c26001c61461015d578063f2fde38b1461018e578063f4c714b4146101aa578063f8258bf0146101dd578063fc08a7d71461020e576100a9565b80630fe9a1d6146100ae57806330e0789e146100ca57806357613b8e146100e6578063715018a6146101175780638da5cb5b14610121575b600080fd5b6100c860048036038101906100c391906114a6565b61023e565b005b6100e460048036038101906100df9190611567565b61065c565b005b61010060048036038101906100fb9190611682565b61084a565b60405161010e929190611828565b60405180910390f35b61011f610b32565b005b610129610c01565b604051610136919061186e565b60405180910390f35b610147610c2a565b60405161015491906118a4565b60405180910390f35b610177600480360381019061017291906118bf565b610c81565b604051610185929190611908565b60405180910390f35b6101a860048036038101906101a39190611931565b610d6a565b005b6101c460048036038101906101bf919061195e565b610d87565b6040516101d494939291906119e4565b60405180910390f35b6101f760048036038101906101f291906118bf565b610ef7565b604051610205929190611a37565b60405180910390f35b61022860048036038101906102239190611931565b610fae565b6040516102359190611b1e565b60405180910390f35b60008080600090505b60018054905081101561030857846040516020016102659190611b7c565b604051602081830303815290604052805190602001206003600083815260200190815260200160002060405160200161029e9190611c88565b6040516020818303038152906040528051906020012014156102f557600192506002600082815260200190815260200160002060009054906101000a900473ffffffffffffffffffffffffffffffffffffffff1691505b808061030090611cce565b915050610247565b50600115158215151415610351576040517f08c379a000000000000000000000000000000000000000000000000000000000815260040161034890611d63565b60405180910390fd5b8273ffffffffffffffffffffffffffffffffffffffff168173ffffffffffffffffffffffffffffffffffffffff1614156103c0576040517f08c379a00000000000000000000000000000000000000000000000000000000081526004016103b790611d63565b60405180910390fd5b6000429050600160405180608001604052808881526020018781526020018673ffffffffffffffffffffffffffffffffffffffff168152602001838152509080600181540180825580915050600190039060005260206000209060040201600090919091909150600082015181600001908051906020019061044392919061124b565b50602082015181600101908051906020019061046092919061124b565b5060408201518160020160006101000a81548173ffffffffffffffffffffffffffffffffffffffff021916908373ffffffffffffffffffffffffffffffffffffffff1602179055506060820151816003015550506000600180805490506104c79190611d83565b9050336002600083815260200190815260200160002060006101000a81548173ffffffffffffffffffffffffffffffffffffffff021916908373ffffffffffffffffffffffffffffffffffffffff1602179055508560036000838152602001908152602001600020908051906020019061054292919061124b565b508660046000838152602001908152602001600020908051906020019061056a92919061124b565b506105be6001600560003373ffffffffffffffffffffffffffffffffffffffff1673ffffffffffffffffffffffffffffffffffffffff1681526020019081526020016000205461110190919063ffffffff16565b600560003373ffffffffffffffffffffffffffffffffffffffff1673ffffffffffffffffffffffffffffffffffffffff168152602001908152602001600020819055508473ffffffffffffffffffffffffffffffffffffffff167f15fcfac5eaf6fc2bd63c0f413b1c9885f063e4e81c98237dc2b55b2067bfddc688888560405161064b93929190611db7565b60405180910390a250505050505050565b3373ffffffffffffffffffffffffffffffffffffffff166002600083815260200190815260200160002060009054906101000a900473ffffffffffffffffffffffffffffffffffffffff1673ffffffffffffffffffffffffffffffffffffffff16146106c757600080fd5b61071a6001600560008573ffffffffffffffffffffffffffffffffffffffff1673ffffffffffffffffffffffffffffffffffffffff1681526020019081526020016000205461110190919063ffffffff16565b600560008473ffffffffffffffffffffffffffffffffffffffff1673ffffffffffffffffffffffffffffffffffffffff168152602001908152602001600020819055506107b06001600560008673ffffffffffffffffffffffffffffffffffffffff1673ffffffffffffffffffffffffffffffffffffffff1681526020019081526020016000205461112d90919063ffffffff16565b600560008573ffffffffffffffffffffffffffffffffffffffff1673ffffffffffffffffffffffffffffffffffffffff16815260200190815260200160002081905550816002600083815260200190815260200160002060006101000a81548173ffffffffffffffffffffffffffffffffffffffff021916908373ffffffffffffffffffffffffffffffffffffffff160217905550505050565b6060806000600560008673ffffffffffffffffffffffffffffffffffffffff1673ffffffffffffffffffffffffffffffffffffffff1681526020019081526020016000205467ffffffffffffffff8111156108a8576108a761131d565b5b6040519080825280602002602001820160405280156108db57816020015b60608152602001906001900390816108c65790505b5090506000600560008773ffffffffffffffffffffffffffffffffffffffff1673ffffffffffffffffffffffffffffffffffffffff1681526020019081526020016000205467ffffffffffffffff8111156109395761093861131d565b5b60405190808252806020026020018201604052801561096c57816020015b60608152602001906001900390816109575790505b50905060005b8551811015610b225760008682815181106109905761098f611dfc565b5b602002602001015190506004600082815260200190815260200160002080546109b890611bc2565b80601f01602080910402602001604051908101604052809291908181526020018280546109e490611bc2565b8015610a315780601f10610a0657610100808354040283529160200191610a31565b820191906000526020600020905b815481529060010190602001808311610a1457829003601f168201915b5050505050848381518110610a4957610a48611dfc565b5b6020026020010181905250600360008281526020019081526020016000208054610a7290611bc2565b80601f0160208091040260200160405190810160405280929190818152602001828054610a9e90611bc2565b8015610aeb5780601f10610ac057610100808354040283529160200191610aeb565b820191906000526020600020905b815481529060010190602001808311610ace57829003601f168201915b5050505050838381518110610b0357610b02611dfc565b5b6020026020010181905250508080610b1a90611cce565b915050610972565b5081819350935050509250929050565b610b3a610c2a565b610b4357600080fd5b600073ffffffffffffffffffffffffffffffffffffffff1660008054906101000a900473ffffffffffffffffffffffffffffffffffffffff1673ffffffffffffffffffffffffffffffffffffffff167f8be0079c531659141344cd1fd0a4f28419497f9722a3daafe3b4186f6b6457e060405160405180910390a360008060006101000a81548173ffffffffffffffffffffffffffffffffffffffff021916908373ffffffffffffffffffffffffffffffffffffffff160217905550565b60008060009054906101000a900473ffffffffffffffffffffffffffffffffffffffff16905090565b60008060009054906101000a900473ffffffffffffffffffffffffffffffffffffffff1673ffffffffffffffffffffffffffffffffffffffff163373ffffffffffffffffffffffffffffffffffffffff1614905090565b60008060008080600090505b600180549050811015610d5b5785604051602001610cab9190611b7c565b6040516020818303038152906040528051906020012060036000838152602001908152602001600020604051602001610ce49190611c88565b604051602081830303815290604052805190602001201415610d4857600192506002600082815260200190815260200160002060009054906101000a900473ffffffffffffffffffffffffffffffffffffffff169150828294509450505050610d65565b8080610d5390611cce565b915050610c8d565b5081819350935050505b915091565b610d72610c2a565b610d7b57600080fd5b610d8481611154565b50565b60018181548110610d9757600080fd5b9060005260206000209060040201600091509050806000018054610dba90611bc2565b80601f0160208091040260200160405190810160405280929190818152602001828054610de690611bc2565b8015610e335780601f10610e0857610100808354040283529160200191610e33565b820191906000526020600020905b815481529060010190602001808311610e1657829003601f168201915b505050505090806001018054610e4890611bc2565b80601f0160208091040260200160405190810160405280929190818152602001828054610e7490611bc2565b8015610ec15780601f10610e9657610100808354040283529160200191610ec1565b820191906000526020600020905b815481529060010190602001808311610ea457829003601f168201915b5050505050908060020160009054906101000a900473ffffffffffffffffffffffffffffffffffffffff16908060030154905084565b6000806000805b600180549050811015610f955784604051602001610f1c9190611b7c565b6040516020818303038152906040528051906020012060036000838152602001908152602001600020604051602001610f559190611c88565b604051602081830303815290604052805190602001201415610f8257600191508082935093505050610fa9565b8080610f8d90611cce565b915050610efe565b506000600180549050905080829350935050505b915091565b60606000600560008473ffffffffffffffffffffffffffffffffffffffff1673ffffffffffffffffffffffffffffffffffffffff1681526020019081526020016000205467ffffffffffffffff81111561100b5761100a61131d565b5b6040519080825280602002602001820160405280156110395781602001602082028036833780820191505090505b5090506000805b6001805490508110156110f6578473ffffffffffffffffffffffffffffffffffffffff166002600083815260200190815260200160002060009054906101000a900473ffffffffffffffffffffffffffffffffffffffff1673ffffffffffffffffffffffffffffffffffffffff1614156110e357808383815181106110c8576110c7611dfc565b5b60200260200101818152505081806110df90611cce565b9250505b80806110ee90611cce565b915050611040565b508192505050919050565b60008082846111109190611e2b565b90508381101561112357611122611e81565b5b8091505092915050565b6000828211156111405761113f611e81565b5b818361114c9190611d83565b905092915050565b600073ffffffffffffffffffffffffffffffffffffffff168173ffffffffffffffffffffffffffffffffffffffff16141561118e57600080fd5b8073ffffffffffffffffffffffffffffffffffffffff1660008054906101000a900473ffffffffffffffffffffffffffffffffffffffff1673ffffffffffffffffffffffffffffffffffffffff167f8be0079c531659141344cd1fd0a4f28419497f9722a3daafe3b4186f6b6457e060405160405180910390a3806000806101000a81548173ffffffffffffffffffffffffffffffffffffffff021916908373ffffffffffffffffffffffffffffffffffffffff16021790555050565b82805461125790611bc2565b90600052602060002090601f01602090048101928261127957600085556112c0565b82601f1061129257805160ff19168380011785556112c0565b828001600101855582156112c0579182015b828111156112bf5782518255916020019190600101906112a4565b5b5090506112cd91906112d1565b5090565b5b808211156112ea5760008160009055506001016112d2565b5090565b6000604051905090565b600080fd5b600080fd5b600080fd5b600080fd5b6000601f19601f8301169050919050565b7f4e487b7100000000000000000000000000000000000000000000000000000000600052604160045260246000fd5b6113558261130c565b810181811067ffffffffffffffff821117156113745761137361131d565b5b80604052505050565b60006113876112ee565b9050611393828261134c565b919050565b600067ffffffffffffffff8211156113b3576113b261131d565b5b6113bc8261130c565b9050602081019050919050565b82818337600083830152505050565b60006113eb6113e684611398565b61137d565b90508281526020810184848401111561140757611406611307565b5b6114128482856113c9565b509392505050565b600082601f83011261142f5761142e611302565b5b813561143f8482602086016113d8565b91505092915050565b600073ffffffffffffffffffffffffffffffffffffffff82169050919050565b600061147382611448565b9050919050565b61148381611468565b811461148e57600080fd5b50565b6000813590506114a08161147a565b92915050565b6000806000606084860312156114bf576114be6112f8565b5b600084013567ffffffffffffffff8111156114dd576114dc6112fd565b5b6114e98682870161141a565b935050602084013567ffffffffffffffff81111561150a576115096112fd565b5b6115168682870161141a565b925050604061152786828701611491565b9150509250925092565b6000819050919050565b61154481611531565b811461154f57600080fd5b50565b6000813590506115618161153b565b92915050565b6000806000606084860312156115805761157f6112f8565b5b600061158e86828701611491565b935050602061159f86828701611491565b92505060406115b086828701611552565b9150509250925092565b600067ffffffffffffffff8211156115d5576115d461131d565b5b602082029050602081019050919050565b600080fd5b60006115fe6115f9846115ba565b61137d565b90508083825260208201905060208402830185811115611621576116206115e6565b5b835b8181101561164a57806116368882611552565b845260208401935050602081019050611623565b5050509392505050565b600082601f83011261166957611668611302565b5b81356116798482602086016115eb565b91505092915050565b60008060408385031215611699576116986112f8565b5b60006116a785828601611491565b925050602083013567ffffffffffffffff8111156116c8576116c76112fd565b5b6116d485828601611654565b9150509250929050565b600081519050919050565b600082825260208201905092915050565b6000819050602082019050919050565b600081519050919050565b600082825260208201905092915050565b60005b83811015611744578082015181840152602081019050611729565b83811115611753576000848401525b50505050565b60006117648261170a565b61176e8185611715565b935061177e818560208601611726565b6117878161130c565b840191505092915050565b600061179e8383611759565b905092915050565b6000602082019050919050565b60006117be826116de565b6117c881856116e9565b9350836020820285016117da856116fa565b8060005b8581101561181657848403895281516117f78582611792565b9450611802836117a6565b925060208a019950506001810190506117de565b50829750879550505050505092915050565b6000604082019050818103600083015261184281856117b3565b9050818103602083015261185681846117b3565b90509392505050565b61186881611468565b82525050565b6000602082019050611883600083018461185f565b92915050565b60008115159050919050565b61189e81611889565b82525050565b60006020820190506118b96000830184611895565b92915050565b6000602082840312156118d5576118d46112f8565b5b600082013567ffffffffffffffff8111156118f3576118f26112fd565b5b6118ff8482850161141a565b91505092915050565b600060408201905061191d6000830185611895565b61192a602083018461185f565b9392505050565b600060208284031215611947576119466112f8565b5b600061195584828501611491565b91505092915050565b600060208284031215611974576119736112f8565b5b600061198284828501611552565b91505092915050565b600082825260208201905092915050565b60006119a78261170a565b6119b1818561198b565b93506119c1818560208601611726565b6119ca8161130c565b840191505092915050565b6119de81611531565b82525050565b600060808201905081810360008301526119fe818761199c565b90508181036020830152611a12818661199c565b9050611a21604083018561185f565b611a2e60608301846119d5565b95945050505050565b6000604082019050611a4c60008301856119d5565b611a596020830184611895565b9392505050565b600081519050919050565b600082825260208201905092915050565b6000819050602082019050919050565b611a9581611531565b82525050565b6000611aa78383611a8c565b60208301905092915050565b6000602082019050919050565b6000611acb82611a60565b611ad58185611a6b565b9350611ae083611a7c565b8060005b83811015611b11578151611af88882611a9b565b9750611b0383611ab3565b925050600181019050611ae4565b5085935050505092915050565b60006020820190508181036000830152611b388184611ac0565b905092915050565b600081905092915050565b6000611b568261170a565b611b608185611b40565b9350611b70818560208601611726565b80840191505092915050565b6000611b888284611b4b565b915081905092915050565b7f4e487b7100000000000000000000000000000000000000000000000000000000600052602260045260246000fd5b60006002820490506001821680611bda57607f821691505b60208210811415611bee57611bed611b93565b5b50919050565b60008190508160005260206000209050919050565b60008154611c1681611bc2565b611c208186611b40565b94506001821660008114611c3b5760018114611c4c57611c7f565b60ff19831686528186019350611c7f565b611c5585611bf4565b60005b83811015611c7757815481890152600182019150602081019050611c58565b838801955050505b50505092915050565b6000611c948284611c09565b915081905092915050565b7f4e487b7100000000000000000000000000000000000000000000000000000000600052601160045260246000fd5b6000611cd982611531565b91507fffffffffffffffffffffffffffffffffffffffffffffffffffffffffffffffff821415611d0c57611d0b611c9f565b5b600182019050919050565b7f46696c6520616c72656164792065786973740000000000000000000000000000600082015250565b6000611d4d60128361198b565b9150611d5882611d17565b602082019050919050565b60006020820190508181036000830152611d7c81611d40565b9050919050565b6000611d8e82611531565b9150611d9983611531565b925082821015611dac57611dab611c9f565b5b828203905092915050565b60006060820190508181036000830152611dd1818661199c565b90508181036020830152611de5818561199c565b9050611df460408301846119d5565b949350505050565b7f4e487b7100000000000000000000000000000000000000000000000000000000600052603260045260246000fd5b6000611e3682611531565b9150611e4183611531565b9250827fffffffffffffffffffffffffffffffffffffffffffffffffffffffffffffffff03821115611e7657611e75611c9f565b5b828201905092915050565b7f4e487b7100000000000000000000000000000000000000000000000000000000600052600160045260246000fdfea2646970667358221220a577a84419233bbed0e343e362a22f5cc5a6574de6098a502c6388fba416038d64736f6c634300080b0033",
  "immutableReferences": {},
  "source": "// SPDX-License-Identifier: MIT\r\npragma solidity ^0.8.0;\r\n\r\nimport \"./GetFile.sol\";\r\nimport \"./safemath.sol\";\r\n\r\ncontract FileOwnership is GetFile {\r\n  using SafeMath for uint256;\r\n\r\n  function _transfer(address _from, address _to, uint256 _tokenId) public {\r\n    require(fileToOwner[_tokenId] == msg.sender);\r\n    ownerFileCount[_to] = ownerFileCount[_to].add(1);\r\n    ownerFileCount[_from] = ownerFileCount[_from].sub(1);\r\n    fileToOwner[_tokenId] = _to;\r\n  }\r\n}",
  "sourcePath": "D:\\Bagas Fadillah Islamay\\Programming\\planet-of-docs\\contracts\\FileOwnership.sol",
  "compiler": {
    "name": "solc",
    "version": "0.8.11+commit.d7f03943.Emscripten.clang"
  },
  "schemaVersion": "3.4.1",
  "updatedAt": "2022-01-05T15:43:16.473Z",
  "devdoc": {
    "kind": "dev",
    "methods": {
      "isOwner()": {
        "returns": {
          "_0": "true if `msg.sender` is the owner of the contract."
        }
      },
      "owner()": {
        "returns": {
          "_0": "the address of the owner."
        }
      },
      "renounceOwnership()": {
        "details": "Allows the current owner to relinquish control of the contract."
      },
      "transferOwnership(address)": {
        "details": "Allows the current owner to transfer control of the contract to a newOwner.",
        "params": {
          "newOwner": "The address to transfer ownership to."
        }
      }
    },
    "version": 1
  },
  "userdoc": {
    "kind": "user",
    "methods": {
      "renounceOwnership()": {
        "notice": "Renouncing to ownership will leave the contract without an owner. It will not be possible to call the functions with the `onlyOwner` modifier anymore."
      }
    },
    "version": 1
  }
}