{
  "contractName": "PlanetOfDocs",
  "abi": [
    {
      "anonymous": false,
      "inputs": [
        {
          "indexed": true,
          "internalType": "address",
          "name": "previousOwner",
          "type": "address"
        },
        {
          "indexed": true,
          "internalType": "address",
          "name": "newOwner",
          "type": "address"
        }
      ],
      "name": "OwnershipTransferred",
      "type": "event"
    },
    {
      "anonymous": false,
      "inputs": [
        {
          "indexed": false,
          "internalType": "string",
          "name": "name",
          "type": "string"
        },
        {
          "indexed": false,
          "internalType": "string",
          "name": "fileHash",
          "type": "string"
        },
        {
          "indexed": true,
          "internalType": "address",
          "name": "owner",
          "type": "address"
        },
        {
          "indexed": false,
          "internalType": "uint256",
          "name": "storeDate",
          "type": "uint256"
        }
      ],
      "name": "StoreFileEvent",
      "type": "event"
    },
    {
      "inputs": [
        {
          "internalType": "string",
          "name": "_name",
          "type": "string"
        },
        {
          "internalType": "string",
          "name": "_fileHash",
          "type": "string"
        },
        {
          "internalType": "address",
          "name": "_owner",
          "type": "address"
        }
      ],
      "name": "Store",
      "outputs": [],
      "stateMutability": "nonpayable",
      "type": "function"
    },
    {
      "inputs": [
        {
          "internalType": "address",
          "name": "_from",
          "type": "address"
        },
        {
          "internalType": "address",
          "name": "_to",
          "type": "address"
        },
        {
          "internalType": "uint256",
          "name": "_tokenId",
          "type": "uint256"
        }
      ],
      "name": "_transfer",
      "outputs": [],
      "stateMutability": "nonpayable",
      "type": "function"
    },
    {
      "inputs": [
        {
          "internalType": "string",
          "name": "_fileHash",
          "type": "string"
        }
      ],
      "name": "checkFileExistByHash",
      "outputs": [
        {
          "internalType": "bool",
          "name": "",
          "type": "bool"
        },
        {
          "internalType": "address",
          "name": "",
          "type": "address"
        }
      ],
      "stateMutability": "view",
      "type": "function",
      "constant": true
    },
    {
      "inputs": [
        {
          "internalType": "uint256",
          "name": "",
          "type": "uint256"
        }
      ],
      "name": "files",
      "outputs": [
        {
          "internalType": "string",
          "name": "name",
          "type": "string"
        },
        {
          "internalType": "string",
          "name": "fileHash",
          "type": "string"
        },
        {
          "internalType": "address",
          "name": "owner",
          "type": "address"
        },
        {
          "internalType": "uint256",
          "name": "storeDate",
          "type": "uint256"
        }
      ],
      "stateMutability": "view",
      "type": "function",
      "constant": true
    },
    {
      "inputs": [
        {
          "internalType": "string",
          "name": "_fileHash",
          "type": "string"
        }
      ],
      "name": "getFileIdByHash",
      "outputs": [
        {
          "internalType": "uint256",
          "name": "",
          "type": "uint256"
        },
        {
          "internalType": "bool",
          "name": "",
          "type": "bool"
        }
      ],
      "stateMutability": "view",
      "type": "function",
      "constant": true
    },
    {
      "inputs": [
        {
          "internalType": "address",
          "name": "_owner",
          "type": "address"
        }
      ],
      "name": "getFilesByOwner",
      "outputs": [
        {
          "internalType": "uint256[]",
          "name": "",
          "type": "uint256[]"
        }
      ],
      "stateMutability": "view",
      "type": "function",
      "constant": true
    },
    {
      "inputs": [
        {
          "internalType": "address",
          "name": "_owner",
          "type": "address"
        },
        {
          "internalType": "uint256[]",
          "name": "fileIds",
          "type": "uint256[]"
        }
      ],
      "name": "getOwnerFileDetails",
      "outputs": [
        {
          "internalType": "string[]",
          "name": "",
          "type": "string[]"
        },
        {
          "internalType": "string[]",
          "name": "",
          "type": "string[]"
        }
      ],
      "stateMutability": "view",
      "type": "function",
      "constant": true
    },
    {
      "inputs": [],
      "name": "isOwner",
      "outputs": [
        {
          "internalType": "bool",
          "name": "",
          "type": "bool"
        }
      ],
      "stateMutability": "view",
      "type": "function",
      "constant": true
    },
    {
      "inputs": [],
      "name": "owner",
      "outputs": [
        {
          "internalType": "address",
          "name": "",
          "type": "address"
        }
      ],
      "stateMutability": "view",
      "type": "function",
      "constant": true
    },
    {
      "inputs": [],
      "name": "renounceOwnership",
      "outputs": [],
      "stateMutability": "nonpayable",
      "type": "function"
    },
    {
      "inputs": [
        {
          "internalType": "address",
          "name": "newOwner",
          "type": "address"
        }
      ],
      "name": "transferOwnership",
      "outputs": [],
      "stateMutability": "nonpayable",
      "type": "function"
    },
    {
      "inputs": [
        {
          "internalType": "address",
          "name": "_caller",
          "type": "address"
        }
      ],
      "name": "kill",
      "outputs": [
        {
          "internalType": "bool",
          "name": "",
          "type": "bool"
        }
      ],
      "stateMutability": "nonpayable",
      "type": "function"
    }
  ],
  "bytecode": "0x608060405234801561001057600080fd5b50336000806101000a81548173ffffffffffffffffffffffffffffffffffffffff021916908373ffffffffffffffffffffffffffffffffffffffff16021790555060008054906101000a900473ffffffffffffffffffffffffffffffffffffffff1673ffffffffffffffffffffffffffffffffffffffff16600073ffffffffffffffffffffffffffffffffffffffff167f8be0079c531659141344cd1fd0a4f28419497f9722a3daafe3b4186f6b6457e060405160405180910390a3611f85806100db6000396000f3fe608060405234801561001057600080fd5b50600436106100b45760003560e01c8063c26001c611610071578063c26001c614610168578063cbf0b0c014610199578063f2fde38b146101c9578063f4c714b4146101e5578063f8258bf014610218578063fc08a7d714610249576100b4565b80630fe9a1d6146100b957806330e0789e146100d557806357613b8e146100f1578063715018a6146101225780638da5cb5b1461012c5780638f32d59b1461014a575b600080fd5b6100d360048036038101906100ce9190611545565b610279565b005b6100ef60048036038101906100ea9190611606565b610697565b005b61010b60048036038101906101069190611721565b610885565b6040516101199291906118c7565b60405180910390f35b61012a610b6d565b005b610134610c3c565b604051610141919061190d565b60405180910390f35b610152610c65565b60405161015f9190611943565b60405180910390f35b610182600480360381019061017d919061195e565b610cbc565b6040516101909291906119a7565b60405180910390f35b6101b360048036038101906101ae91906119d0565b610da5565b6040516101c09190611943565b60405180910390f35b6101e360048036038101906101de91906119d0565b610e09565b005b6101ff60048036038101906101fa91906119fd565b610e26565b60405161020f9493929190611a83565b60405180910390f35b610232600480360381019061022d919061195e565b610f96565b604051610240929190611ad6565b60405180910390f35b610263600480360381019061025e91906119d0565b61104d565b6040516102709190611bbd565b60405180910390f35b60008080600090505b60018054905081101561034357846040516020016102a09190611c1b565b60405160208183030381529060405280519060200120600360008381526020019081526020016000206040516020016102d99190611d27565b60405160208183030381529060405280519060200120141561033057600192506002600082815260200190815260200160002060009054906101000a900473ffffffffffffffffffffffffffffffffffffffff1691505b808061033b90611d6d565b915050610282565b5060011515821515141561038c576040517f08c379a000000000000000000000000000000000000000000000000000000000815260040161038390611e02565b60405180910390fd5b8273ffffffffffffffffffffffffffffffffffffffff168173ffffffffffffffffffffffffffffffffffffffff1614156103fb576040517f08c379a00000000000000000000000000000000000000000000000000000000081526004016103f290611e02565b60405180910390fd5b6000429050600160405180608001604052808881526020018781526020018673ffffffffffffffffffffffffffffffffffffffff168152602001838152509080600181540180825580915050600190039060005260206000209060040201600090919091909150600082015181600001908051906020019061047e9291906112ea565b50602082015181600101908051906020019061049b9291906112ea565b5060408201518160020160006101000a81548173ffffffffffffffffffffffffffffffffffffffff021916908373ffffffffffffffffffffffffffffffffffffffff1602179055506060820151816003015550506000600180805490506105029190611e22565b9050336002600083815260200190815260200160002060006101000a81548173ffffffffffffffffffffffffffffffffffffffff021916908373ffffffffffffffffffffffffffffffffffffffff1602179055508560036000838152602001908152602001600020908051906020019061057d9291906112ea565b50866004600083815260200190815260200160002090805190602001906105a59291906112ea565b506105f96001600560003373ffffffffffffffffffffffffffffffffffffffff1673ffffffffffffffffffffffffffffffffffffffff168152602001908152602001600020546111a090919063ffffffff16565b600560003373ffffffffffffffffffffffffffffffffffffffff1673ffffffffffffffffffffffffffffffffffffffff168152602001908152602001600020819055508473ffffffffffffffffffffffffffffffffffffffff167f15fcfac5eaf6fc2bd63c0f413b1c9885f063e4e81c98237dc2b55b2067bfddc688888560405161068693929190611e56565b60405180910390a250505050505050565b3373ffffffffffffffffffffffffffffffffffffffff166002600083815260200190815260200160002060009054906101000a900473ffffffffffffffffffffffffffffffffffffffff1673ffffffffffffffffffffffffffffffffffffffff161461070257600080fd5b6107556001600560008573ffffffffffffffffffffffffffffffffffffffff1673ffffffffffffffffffffffffffffffffffffffff168152602001908152602001600020546111a090919063ffffffff16565b600560008473ffffffffffffffffffffffffffffffffffffffff1673ffffffffffffffffffffffffffffffffffffffff168152602001908152602001600020819055506107eb6001600560008673ffffffffffffffffffffffffffffffffffffffff1673ffffffffffffffffffffffffffffffffffffffff168152602001908152602001600020546111cc90919063ffffffff16565b600560008573ffffffffffffffffffffffffffffffffffffffff1673ffffffffffffffffffffffffffffffffffffffff16815260200190815260200160002081905550816002600083815260200190815260200160002060006101000a81548173ffffffffffffffffffffffffffffffffffffffff021916908373ffffffffffffffffffffffffffffffffffffffff160217905550505050565b6060806000600560008673ffffffffffffffffffffffffffffffffffffffff1673ffffffffffffffffffffffffffffffffffffffff1681526020019081526020016000205467ffffffffffffffff8111156108e3576108e26113bc565b5b60405190808252806020026020018201604052801561091657816020015b60608152602001906001900390816109015790505b5090506000600560008773ffffffffffffffffffffffffffffffffffffffff1673ffffffffffffffffffffffffffffffffffffffff1681526020019081526020016000205467ffffffffffffffff811115610974576109736113bc565b5b6040519080825280602002602001820160405280156109a757816020015b60608152602001906001900390816109925790505b50905060005b8551811015610b5d5760008682815181106109cb576109ca611e9b565b5b602002602001015190506004600082815260200190815260200160002080546109f390611c61565b80601f0160208091040260200160405190810160405280929190818152602001828054610a1f90611c61565b8015610a6c5780601f10610a4157610100808354040283529160200191610a6c565b820191906000526020600020905b815481529060010190602001808311610a4f57829003601f168201915b5050505050848381518110610a8457610a83611e9b565b5b6020026020010181905250600360008281526020019081526020016000208054610aad90611c61565b80601f0160208091040260200160405190810160405280929190818152602001828054610ad990611c61565b8015610b265780601f10610afb57610100808354040283529160200191610b26565b820191906000526020600020905b815481529060010190602001808311610b0957829003601f168201915b5050505050838381518110610b3e57610b3d611e9b565b5b6020026020010181905250508080610b5590611d6d565b9150506109ad565b5081819350935050509250929050565b610b75610c65565b610b7e57600080fd5b600073ffffffffffffffffffffffffffffffffffffffff1660008054906101000a900473ffffffffffffffffffffffffffffffffffffffff1673ffffffffffffffffffffffffffffffffffffffff167f8be0079c531659141344cd1fd0a4f28419497f9722a3daafe3b4186f6b6457e060405160405180910390a360008060006101000a81548173ffffffffffffffffffffffffffffffffffffffff021916908373ffffffffffffffffffffffffffffffffffffffff160217905550565b60008060009054906101000a900473ffffffffffffffffffffffffffffffffffffffff16905090565b60008060009054906101000a900473ffffffffffffffffffffffffffffffffffffffff1673ffffffffffffffffffffffffffffffffffffffff163373ffffffffffffffffffffffffffffffffffffffff1614905090565b60008060008080600090505b600180549050811015610d965785604051602001610ce69190611c1b565b6040516020818303038152906040528051906020012060036000838152602001908152602001600020604051602001610d1f9190611d27565b604051602081830303815290604052805190602001201415610d8357600192506002600082815260200190815260200160002060009054906101000a900473ffffffffffffffffffffffffffffffffffffffff169150828294509450505050610da0565b8080610d8e90611d6d565b915050610cc8565b5081819350935050505b915091565b6000610daf610c65565b610db857600080fd5b8173ffffffffffffffffffffffffffffffffffffffff163373ffffffffffffffffffffffffffffffffffffffff1614610df057600080fd5b3373ffffffffffffffffffffffffffffffffffffffff16ff5b610e11610c65565b610e1a57600080fd5b610e23816111f3565b50565b60018181548110610e3657600080fd5b9060005260206000209060040201600091509050806000018054610e5990611c61565b80601f0160208091040260200160405190810160405280929190818152602001828054610e8590611c61565b8015610ed25780601f10610ea757610100808354040283529160200191610ed2565b820191906000526020600020905b815481529060010190602001808311610eb557829003601f168201915b505050505090806001018054610ee790611c61565b80601f0160208091040260200160405190810160405280929190818152602001828054610f1390611c61565b8015610f605780601f10610f3557610100808354040283529160200191610f60565b820191906000526020600020905b815481529060010190602001808311610f4357829003601f168201915b5050505050908060020160009054906101000a900473ffffffffffffffffffffffffffffffffffffffff16908060030154905084565b6000806000805b6001805490508110156110345784604051602001610fbb9190611c1b565b6040516020818303038152906040528051906020012060036000838152602001908152602001600020604051602001610ff49190611d27565b60405160208183030381529060405280519060200120141561102157600191508082935093505050611048565b808061102c90611d6d565b915050610f9d565b506000600180549050905080829350935050505b915091565b60606000600560008473ffffffffffffffffffffffffffffffffffffffff1673ffffffffffffffffffffffffffffffffffffffff1681526020019081526020016000205467ffffffffffffffff8111156110aa576110a96113bc565b5b6040519080825280602002602001820160405280156110d85781602001602082028036833780820191505090505b5090506000805b600180549050811015611195578473ffffffffffffffffffffffffffffffffffffffff166002600083815260200190815260200160002060009054906101000a900473ffffffffffffffffffffffffffffffffffffffff1673ffffffffffffffffffffffffffffffffffffffff161415611182578083838151811061116757611166611e9b565b5b602002602001018181525050818061117e90611d6d565b9250505b808061118d90611d6d565b9150506110df565b508192505050919050565b60008082846111af9190611eca565b9050838110156111c2576111c1611f20565b5b8091505092915050565b6000828211156111df576111de611f20565b5b81836111eb9190611e22565b905092915050565b600073ffffffffffffffffffffffffffffffffffffffff168173ffffffffffffffffffffffffffffffffffffffff16141561122d57600080fd5b8073ffffffffffffffffffffffffffffffffffffffff1660008054906101000a900473ffffffffffffffffffffffffffffffffffffffff1673ffffffffffffffffffffffffffffffffffffffff167f8be0079c531659141344cd1fd0a4f28419497f9722a3daafe3b4186f6b6457e060405160405180910390a3806000806101000a81548173ffffffffffffffffffffffffffffffffffffffff021916908373ffffffffffffffffffffffffffffffffffffffff16021790555050565b8280546112f690611c61565b90600052602060002090601f016020900481019282611318576000855561135f565b82601f1061133157805160ff191683800117855561135f565b8280016001018555821561135f579182015b8281111561135e578251825591602001919060010190611343565b5b50905061136c9190611370565b5090565b5b80821115611389576000816000905550600101611371565b5090565b6000604051905090565b600080fd5b600080fd5b600080fd5b600080fd5b6000601f19601f8301169050919050565b7f4e487b7100000000000000000000000000000000000000000000000000000000600052604160045260246000fd5b6113f4826113ab565b810181811067ffffffffffffffff82111715611413576114126113bc565b5b80604052505050565b600061142661138d565b905061143282826113eb565b919050565b600067ffffffffffffffff821115611452576114516113bc565b5b61145b826113ab565b9050602081019050919050565b82818337600083830152505050565b600061148a61148584611437565b61141c565b9050828152602081018484840111156114a6576114a56113a6565b5b6114b1848285611468565b509392505050565b600082601f8301126114ce576114cd6113a1565b5b81356114de848260208601611477565b91505092915050565b600073ffffffffffffffffffffffffffffffffffffffff82169050919050565b6000611512826114e7565b9050919050565b61152281611507565b811461152d57600080fd5b50565b60008135905061153f81611519565b92915050565b60008060006060848603121561155e5761155d611397565b5b600084013567ffffffffffffffff81111561157c5761157b61139c565b5b611588868287016114b9565b935050602084013567ffffffffffffffff8111156115a9576115a861139c565b5b6115b5868287016114b9565b92505060406115c686828701611530565b9150509250925092565b6000819050919050565b6115e3816115d0565b81146115ee57600080fd5b50565b600081359050611600816115da565b92915050565b60008060006060848603121561161f5761161e611397565b5b600061162d86828701611530565b935050602061163e86828701611530565b925050604061164f868287016115f1565b9150509250925092565b600067ffffffffffffffff821115611674576116736113bc565b5b602082029050602081019050919050565b600080fd5b600061169d61169884611659565b61141c565b905080838252602082019050602084028301858111156116c0576116bf611685565b5b835b818110156116e957806116d588826115f1565b8452602084019350506020810190506116c2565b5050509392505050565b600082601f830112611708576117076113a1565b5b813561171884826020860161168a565b91505092915050565b6000806040838503121561173857611737611397565b5b600061174685828601611530565b925050602083013567ffffffffffffffff8111156117675761176661139c565b5b611773858286016116f3565b9150509250929050565b600081519050919050565b600082825260208201905092915050565b6000819050602082019050919050565b600081519050919050565b600082825260208201905092915050565b60005b838110156117e35780820151818401526020810190506117c8565b838111156117f2576000848401525b50505050565b6000611803826117a9565b61180d81856117b4565b935061181d8185602086016117c5565b611826816113ab565b840191505092915050565b600061183d83836117f8565b905092915050565b6000602082019050919050565b600061185d8261177d565b6118678185611788565b93508360208202850161187985611799565b8060005b858110156118b557848403895281516118968582611831565b94506118a183611845565b925060208a0199505060018101905061187d565b50829750879550505050505092915050565b600060408201905081810360008301526118e18185611852565b905081810360208301526118f58184611852565b90509392505050565b61190781611507565b82525050565b600060208201905061192260008301846118fe565b92915050565b60008115159050919050565b61193d81611928565b82525050565b60006020820190506119586000830184611934565b92915050565b60006020828403121561197457611973611397565b5b600082013567ffffffffffffffff8111156119925761199161139c565b5b61199e848285016114b9565b91505092915050565b60006040820190506119bc6000830185611934565b6119c960208301846118fe565b9392505050565b6000602082840312156119e6576119e5611397565b5b60006119f484828501611530565b91505092915050565b600060208284031215611a1357611a12611397565b5b6000611a21848285016115f1565b91505092915050565b600082825260208201905092915050565b6000611a46826117a9565b611a508185611a2a565b9350611a608185602086016117c5565b611a69816113ab565b840191505092915050565b611a7d816115d0565b82525050565b60006080820190508181036000830152611a9d8187611a3b565b90508181036020830152611ab18186611a3b565b9050611ac060408301856118fe565b611acd6060830184611a74565b95945050505050565b6000604082019050611aeb6000830185611a74565b611af86020830184611934565b9392505050565b600081519050919050565b600082825260208201905092915050565b6000819050602082019050919050565b611b34816115d0565b82525050565b6000611b468383611b2b565b60208301905092915050565b6000602082019050919050565b6000611b6a82611aff565b611b748185611b0a565b9350611b7f83611b1b565b8060005b83811015611bb0578151611b978882611b3a565b9750611ba283611b52565b925050600181019050611b83565b5085935050505092915050565b60006020820190508181036000830152611bd78184611b5f565b905092915050565b600081905092915050565b6000611bf5826117a9565b611bff8185611bdf565b9350611c0f8185602086016117c5565b80840191505092915050565b6000611c278284611bea565b915081905092915050565b7f4e487b7100000000000000000000000000000000000000000000000000000000600052602260045260246000fd5b60006002820490506001821680611c7957607f821691505b60208210811415611c8d57611c8c611c32565b5b50919050565b60008190508160005260206000209050919050565b60008154611cb581611c61565b611cbf8186611bdf565b94506001821660008114611cda5760018114611ceb57611d1e565b60ff19831686528186019350611d1e565b611cf485611c93565b60005b83811015611d1657815481890152600182019150602081019050611cf7565b838801955050505b50505092915050565b6000611d338284611ca8565b915081905092915050565b7f4e487b7100000000000000000000000000000000000000000000000000000000600052601160045260246000fd5b6000611d78826115d0565b91507fffffffffffffffffffffffffffffffffffffffffffffffffffffffffffffffff821415611dab57611daa611d3e565b5b600182019050919050565b7f46696c6520616c72656164792065786973740000000000000000000000000000600082015250565b6000611dec601283611a2a565b9150611df782611db6565b602082019050919050565b60006020820190508181036000830152611e1b81611ddf565b9050919050565b6000611e2d826115d0565b9150611e38836115d0565b925082821015611e4b57611e4a611d3e565b5b828203905092915050565b60006060820190508181036000830152611e708186611a3b565b90508181036020830152611e848185611a3b565b9050611e936040830184611a74565b949350505050565b7f4e487b7100000000000000000000000000000000000000000000000000000000600052603260045260246000fd5b6000611ed5826115d0565b9150611ee0836115d0565b9250827fffffffffffffffffffffffffffffffffffffffffffffffffffffffffffffffff03821115611f1557611f14611d3e565b5b828201905092915050565b7f4e487b7100000000000000000000000000000000000000000000000000000000600052600160045260246000fdfea2646970667358221220560d184d423bad093338e07bf208aac63a41dc0f45cb312a46b766dc7a2527f764736f6c634300080b0033",
  "immutableReferences": {},
  "source": "// SPDX-License-Identifier: MIT\r\npragma solidity ^0.8.0;\r\n\r\nimport \"./FileOwnership.sol\";\r\n\r\ncontract PlanetOfDocs is FileOwnership {\r\n    function kill(address _caller) public onlyOwner returns (bool) {\r\n        require(msg.sender == _caller);\r\n        selfdestruct(payable(msg.sender));     \r\n        return true;\r\n    }\r\n}",
  "sourcePath": "D:/Bagas Fadillah Islamay/Programming/planet-of-docs/contracts/PlanetOfDocs.sol",
  "compiler": {
    "name": "solc",
    "version": "0.8.11+commit.d7f03943.Emscripten.clang"
  },
  "schemaVersion": "3.4.1",
  "updatedAt": "2022-01-05T15:48:45.521Z",
  "networkType": "ethereum",
  "devdoc": {
    "kind": "dev",
    "methods": {
      "isOwner()": {
        "returns": {
          "_0": "true if `msg.sender` is the owner of the contract."
        }
      },
      "owner()": {
        "returns": {
          "_0": "the address of the owner."
        }
      },
      "renounceOwnership()": {
        "details": "Allows the current owner to relinquish control of the contract."
      },
      "transferOwnership(address)": {
        "details": "Allows the current owner to transfer control of the contract to a newOwner.",
        "params": {
          "newOwner": "The address to transfer ownership to."
        }
      }
    },
    "version": 1
  },
  "userdoc": {
    "kind": "user",
    "methods": {
      "renounceOwnership()": {
        "notice": "Renouncing to ownership will leave the contract without an owner. It will not be possible to call the functions with the `onlyOwner` modifier anymore."
      }
    },
    "version": 1
  }
}