{
  "contractName": "Storage",
  "abi": [
    {
      "anonymous": false,
      "inputs": [
        {
          "indexed": true,
          "internalType": "address",
          "name": "previousOwner",
          "type": "address"
        },
        {
          "indexed": true,
          "internalType": "address",
          "name": "newOwner",
          "type": "address"
        }
      ],
      "name": "OwnershipTransferred",
      "type": "event"
    },
    {
      "inputs": [
        {
          "internalType": "uint256",
          "name": "",
          "type": "uint256"
        }
      ],
      "name": "files",
      "outputs": [
        {
          "internalType": "string",
          "name": "name",
          "type": "string"
        },
        {
          "internalType": "string",
          "name": "fileHash",
          "type": "string"
        },
        {
          "internalType": "address",
          "name": "owner",
          "type": "address"
        },
        {
          "internalType": "uint256",
          "name": "storeDate",
          "type": "uint256"
        }
      ],
      "stateMutability": "view",
      "type": "function"
    },
    {
      "inputs": [],
      "name": "isOwner",
      "outputs": [
        {
          "internalType": "bool",
          "name": "",
          "type": "bool"
        }
      ],
      "stateMutability": "view",
      "type": "function"
    },
    {
      "inputs": [],
      "name": "owner",
      "outputs": [
        {
          "internalType": "address",
          "name": "",
          "type": "address"
        }
      ],
      "stateMutability": "view",
      "type": "function"
    },
    {
      "inputs": [],
      "name": "renounceOwnership",
      "outputs": [],
      "stateMutability": "nonpayable",
      "type": "function"
    },
    {
      "inputs": [
        {
          "internalType": "address",
          "name": "newOwner",
          "type": "address"
        }
      ],
      "name": "transferOwnership",
      "outputs": [],
      "stateMutability": "nonpayable",
      "type": "function"
    }
  ],
  "bytecode": "0x608060405234801561001057600080fd5b50336000806101000a81548173ffffffffffffffffffffffffffffffffffffffff021916908373ffffffffffffffffffffffffffffffffffffffff16021790555060008054906101000a900473ffffffffffffffffffffffffffffffffffffffff1673ffffffffffffffffffffffffffffffffffffffff16600073ffffffffffffffffffffffffffffffffffffffff167f8be0079c531659141344cd1fd0a4f28419497f9722a3daafe3b4186f6b6457e060405160405180910390a36107a9806100db6000396000f3fe608060405234801561001057600080fd5b50600436106100575760003560e01c8063715018a61461005c5780638da5cb5b146100665780638f32d59b14610084578063f2fde38b146100a2578063f4c714b4146100be575b600080fd5b6100646100f1565b005b61006e6101c0565b60405161007b9190610505565b60405180910390f35b61008c6101e9565b604051610099919061053b565b60405180910390f35b6100bc60048036038101906100b79190610587565b610240565b005b6100d860048036038101906100d391906105ea565b61025d565b6040516100e894939291906106bf565b60405180910390f35b6100f96101e9565b61010257600080fd5b600073ffffffffffffffffffffffffffffffffffffffff1660008054906101000a900473ffffffffffffffffffffffffffffffffffffffff1673ffffffffffffffffffffffffffffffffffffffff167f8be0079c531659141344cd1fd0a4f28419497f9722a3daafe3b4186f6b6457e060405160405180910390a360008060006101000a81548173ffffffffffffffffffffffffffffffffffffffff021916908373ffffffffffffffffffffffffffffffffffffffff160217905550565b60008060009054906101000a900473ffffffffffffffffffffffffffffffffffffffff16905090565b60008060009054906101000a900473ffffffffffffffffffffffffffffffffffffffff1673ffffffffffffffffffffffffffffffffffffffff163373ffffffffffffffffffffffffffffffffffffffff1614905090565b6102486101e9565b61025157600080fd5b61025a816103cd565b50565b6001818154811061026d57600080fd5b906000526020600020906004020160009150905080600001805461029090610741565b80601f01602080910402602001604051908101604052809291908181526020018280546102bc90610741565b80156103095780601f106102de57610100808354040283529160200191610309565b820191906000526020600020905b8154815290600101906020018083116102ec57829003601f168201915b50505050509080600101805461031e90610741565b80601f016020809104026020016040519081016040528092919081815260200182805461034a90610741565b80156103975780601f1061036c57610100808354040283529160200191610397565b820191906000526020600020905b81548152906001019060200180831161037a57829003601f168201915b5050505050908060020160009054906101000a900473ffffffffffffffffffffffffffffffffffffffff16908060030154905084565b600073ffffffffffffffffffffffffffffffffffffffff168173ffffffffffffffffffffffffffffffffffffffff16141561040757600080fd5b8073ffffffffffffffffffffffffffffffffffffffff1660008054906101000a900473ffffffffffffffffffffffffffffffffffffffff1673ffffffffffffffffffffffffffffffffffffffff167f8be0079c531659141344cd1fd0a4f28419497f9722a3daafe3b4186f6b6457e060405160405180910390a3806000806101000a81548173ffffffffffffffffffffffffffffffffffffffff021916908373ffffffffffffffffffffffffffffffffffffffff16021790555050565b600073ffffffffffffffffffffffffffffffffffffffff82169050919050565b60006104ef826104c4565b9050919050565b6104ff816104e4565b82525050565b600060208201905061051a60008301846104f6565b92915050565b60008115159050919050565b61053581610520565b82525050565b6000602082019050610550600083018461052c565b92915050565b600080fd5b610564816104e4565b811461056f57600080fd5b50565b6000813590506105818161055b565b92915050565b60006020828403121561059d5761059c610556565b5b60006105ab84828501610572565b91505092915050565b6000819050919050565b6105c7816105b4565b81146105d257600080fd5b50565b6000813590506105e4816105be565b92915050565b600060208284031215610600576105ff610556565b5b600061060e848285016105d5565b91505092915050565b600081519050919050565b600082825260208201905092915050565b60005b83811015610651578082015181840152602081019050610636565b83811115610660576000848401525b50505050565b6000601f19601f8301169050919050565b600061068282610617565b61068c8185610622565b935061069c818560208601610633565b6106a581610666565b840191505092915050565b6106b9816105b4565b82525050565b600060808201905081810360008301526106d98187610677565b905081810360208301526106ed8186610677565b90506106fc60408301856104f6565b61070960608301846106b0565b95945050505050565b7f4e487b7100000000000000000000000000000000000000000000000000000000600052602260045260246000fd5b6000600282049050600182168061075957607f821691505b6020821081141561076d5761076c610712565b5b5091905056fea264697066735822122092eebb073b8d1d3d07e629af3658f16375c1627f535167abed5ee51f4140309264736f6c634300080b0033",
  "immutableReferences": {},
  "source": "// SPDX-License-Identifier: MIT\npragma solidity ^0.8.0;\n\n/** \n * @title Planet of Docs\n * @author Bagas Fadillah Islamay\n * @notice Manage files with IPFS data storing\n * @dev This contract might be buggy\n * @custom:experimental This is an experimental contract, Tugas Akhir!\n */\n\nimport \"./ownable.sol\";\nimport \"./safemath.sol\";\n\ncontract Storage is Ownable{\n  /**\n   * @dev Base contract\n   */\n  \n  struct File {\n    string name;\n    string fileHash;\n    address owner;\n    uint256 storeDate;\n  }\n\n  // Array of files struct\n  File[] public files;\n\n  // Map file to owner\n  mapping (uint => address) internal fileToOwner;\n  // Map file to hash\n  mapping (uint => string) internal fileToHash;\n  // Map file to name\n  mapping (uint => string) internal fileToName;\n  // The number of files owned by the owner\n  mapping (address => uint) internal ownerFileCount;\n \n\n  modifier ownerOfFile(uint _fileId) {\n    /**\n     * @dev Modifier to check that only owner that can alter the file's info\n     * Act as an anti-IDOR mechanism\n     * Reference: Refactoring Common Logic from CZ-L4-C6\n     */\n    require(msg.sender == fileToOwner[_fileId]);\n    _;\n  }\n}",
  "sourcePath": "D:\\Bagas Fadillah Islamay\\Programming\\planet-of-docs\\contracts\\Storage.sol",
  "compiler": {
    "name": "solc",
    "version": "0.8.11+commit.d7f03943.Emscripten.clang"
  },
  "schemaVersion": "3.4.1",
  "updatedAt": "2022-01-05T15:43:16.567Z",
  "devdoc": {
    "kind": "dev",
    "methods": {
      "isOwner()": {
        "returns": {
          "_0": "true if `msg.sender` is the owner of the contract."
        }
      },
      "owner()": {
        "returns": {
          "_0": "the address of the owner."
        }
      },
      "renounceOwnership()": {
        "details": "Allows the current owner to relinquish control of the contract."
      },
      "transferOwnership(address)": {
        "details": "Allows the current owner to transfer control of the contract to a newOwner.",
        "params": {
          "newOwner": "The address to transfer ownership to."
        }
      }
    },
    "version": 1
  },
  "userdoc": {
    "kind": "user",
    "methods": {
      "renounceOwnership()": {
        "notice": "Renouncing to ownership will leave the contract without an owner. It will not be possible to call the functions with the `onlyOwner` modifier anymore."
      }
    },
    "version": 1
  }
}